:020000020000FC
:1000000060D0E8D0FDCF01D0FECF64D080E181D0B8
:1000100064D060D080E16DD060D000D00F930FEF3E
:10002000000000000150E1F70F91089553D080E1E6
:1000300070D053D04FD080E15CD04FD0EFDF4AD0AA
:1000400080E157D04AD0EADF45D080E152D00000AD
:1000500050D043D008950F930AEA1F930F932F9324
:100060003F93102F5FD06DD076D03F912F910F919D
:100070001F910F91089556D008950F932BD080E1D2
:1000800048D02BD027D080E12BD027D023D088E0B8
:100090003BD023D01FD088E030D0072F1ED00023C4
:1000A000C9F318D080E120D018D00F91089549D01D
:1000B00011D080E12ED011D00DD080E111D00DD023
:1000C00008950F930FE50DBF02E00EBF0F9154D0BE
:1000D00024D008957F938F9308958F917F910895F1
:1000E00078B3782B78BB089578B38095782378BB64
:1000F000089578B3782778BB089576B3782311F004
:1001000071E001C070E0089577B38095782377BBE4
:10011000089577B3782B77BB08950F9308E10DB955
:100120000F910895D7DF80E1F4DFD7DFD3DF80E1DF
:10013000E0DF0000DEDFD1DFCDDF80E1E5DFCDDF16
:1001400008951F93C7DF80E1D8DF172FC6DF112383
:10015000C9F71F9108951FB900E40EB9BBDF82E013
:10016000D8DFBBDF769BFECF1EB110641EB9B2DFB5
:1001700082E0CADFB2DF0895ADDF82E0CADFADDF23
:10018000A9DF81E0C6DFA9DFA5DF84E0BDDFA5DF51
:10019000A1DF80E1B9DFA1DF9DDF88E0B5DF9DDF72
:1001A00008954F937F9396DF88E0A7DF472F95DF71
:1001B000403069F0722F1F930F932F933F93172FA7
:1001C000B1DFBFDFC8DF3F912F910F911F917F916A
:1001D0004F91089520E07EDF81E08BDF000089DF12
:0E01E0007CDFDFDF23952134B1F7F4CF0895E3
:00000001FF
