:020000020000FC
:1000000060D0EBD0FDCF01D0FECF64D080E181D0B5
:1000100064D060D080E16DD060D000D00F930FEF3E
:10002000000000000150E1F70F91089553D080E1E6
:1000300070D053D04FD080E15CD04FD0EFDF4AD0AA
:1000400080E157D04AD0EADF45D080E152D00000AD
:1000500050D043D008950F930AEA1F930F932F9324
:100060003F93102F5FD06DD076D03F912F910F919D
:100070001F910F91089556D008950F932BD080E1D2
:1000800048D02BD027D080E12BD027D023D088E0B8
:100090003BD023D01FD088E030D0072F1ED00023C4
:1000A000C9F318D080E120D018D00F91089549D01D
:1000B00011D080E12ED011D00DD080E111D00DD023
:1000C00008950F930FE50DBF02E00EBF0F915BD0B7
:1000D00024D008957F938F9308958F917F910895F1
:1000E00078B3782B78BB089578B38095782378BB64
:1000F000089578B3782778BB089576B3782311F004
:1001000071E001C070E0089577B38095782377BBE4
:10011000089577B3782B77BB08950F9308E10DB955
:100120000F910895D7DF80E1F4DFD7DFD3DF80E1DF
:10013000E0DF0000DEDFD1DFCDDF80E1E5DFCDDF16
:1001400008951F93C7DF80E1D8DF172FC6DF112383
:10015000C9F71F9108951FB900E40EB9BBDF81E014
:10016000D3DFBBDFB7DF82E0D4DFB7DF1EB116FF1E
:10017000FDCF1FB1AFDF81E0CCDFAFDFABDF82E0CF
:10018000C3DFABDF0895A6DF82E0C3DFA6DFA2DF17
:1001900082E0BFDFA2DF9EDF80E1B6DF9EDF9ADF75
:1001A00088E0B2DF9ADF08954F937F9393DF88E072
:1001B000A4DF472F92DF403069F0722F1F930F9317
:1001C0002F933F93172FAEDFBCDFC5DF3F912F91F9
:1001D0000F911F917F914F91089520E07BDF88E080
:1001E00098DF7BDF77DF88E084DF000082DF75DF68
:1001F00071DF88E089DF71DFD7DF2395213471F764
:04020000ECCF0895A2
:00000001FF
