:020000020000FC
:10000000A3D07F938F9381E0C1D08F917F917F9315
:100010008F9381E0A6D08F917F9182D07F938F9331
:1000200081E09BD08F917F917F938F9380E19ED0D1
:100030008F917F9109D07F938F9380E197D08F919B
:100040007F9102D0F1CF08950F930FEF00000000D1
:100050000150E1F70F9108957F938F9380E196D03F
:100060008F917F91F1DFF0DFEFDF7F938F9380E15E
:100070007DD08F917F91E8DF7F938F9380E176D061
:100080008F917F91E1DF7F938F9380E16AD08F9191
:100090007F9108950F930AEB1F930F932F933F9334
:1000A000102F7DD085D0A9D03F912F910F911F9116
:1000B0000F9108950F9301E11F930F932F933F9397
:1000C000102F6DD075D099D03F912F910F911F9126
:1000D0000F91089564D008950F937F938F9380E1DB
:1000E00055D08F917F917F938F9380E136D08F9100
:1000F0007F917F938F9388E044D08F917F917F93FE
:100100008F9388E037D0072F8F917F910023B9F329
:100110007F938F9380E125D08F917F910F910895E8
:100120007F938F9388E032D08F917F917F938F93CD
:1001300088E013D08F917F913BD07F938F9388E09D
:1001400010D08F917F9108950F930FE50DBF02E0BE
:100150000EBF0F9167D01ED0089578B3782B78BB6F
:10016000089578B38095782378BB089578B378277D
:1001700078BB089576B3782311F071E001C070E088
:10018000089577B38095782377BB089577B3782B5C
:1001900077BB08950F9308E10DB90F9108957F93F0
:1001A0008F9380E1E3DF50DFE1DF8F917F9108954E
:1001B0001F937F938F9380E1E4DF8F917F917F93F3
:1001C0008F9380E1CADF8F917F917F938F9380E13E
:1001D000D1DF172F8F917F911123B9F77F938F93E1
:1001E00080E1D4DF8F917F917F938F9380E1B9DF9E
:1001F0008F917F9129DF1F9108951FB900E40EB9F7
:100200007F938F9382E0C2DF8F917F91769BFECFA9
:100210001EB110641EB97F938F9382E0B2DF8F917D
:100220007F9108957F938F9382E0B0DF8F917F91CC
:100230007F938F9381E0AADF8F917F917F938F933C
:1002400080E1A4DF8F917F917F938F9384E099DF8A
:100250008F917F917F938F9388E093DF8F917F9130
:1002600008954F937F937F938F9388E083DF472F89
:100270008F917F91403069F0722F1F930F932F93CE
:100280003F93172F8CDF94DFB8DF3F912F910F91B1
:100290001F917F914F91089520E07F938F9381E08C
:1002A00065DFD2DE63DF8F917F91DBDF2395213421
:0802B000A1F7F2CF0895000050
:00000001FF
