:020000020000FC
:1000000001D08CD00F930FE50DBF02E00EBF0F9112
:100010005BD024D008957F938F9308958F917F9123
:10002000089578B3782B78BB089578B380957823BA
:1000300078BB089578B3782778BB089576B3782392
:1000400011F071E001C070E0089577B380957823D6
:1000500077BB089577B3782B77BB08950F9308E1AA
:100060000DB90F910895D7DF80E1F4DFD7DFD3DF3B
:1000700080E1E0DF0000DEDFD1DFCDDF80E1E5DF22
:10008000CDDF08951F93C7DF80E1D8DF172FC6DFCC
:100090001170C9F71F9108951FB900E40EB9BBDFB5
:1000A00081E0D3DFBBDFB7DF82E0D4DFB7DF1EB193
:1000B00016FFFDCF1FB1AFDF81E0CCDFAFDFABDFDD
:1000C00082E0C3DFABDF0895A6DF82E0C3DFA6DFF7
:1000D000A2DF82E0BFDFA2DF9EDF80E1B6DF9EDF2E
:1000E0009ADF88E0B2DF9ADF08954F937F9393DF22
:1000F00088E0A4DF472F92DF403069F0722F1F9312
:100100000F932F933F93172FAEDFBCDFC5DF3F91D7
:100110002F910F911F917F914F91089520E07BDFE8
:1001200088E098DF7BDF77DF88E084DF000082DF14
:1001300075DF71DF88E089DF71DFD7DF2395213438
:0601400071F7ECCF0895F9
:00000001FF
